:020000040800F2
:1000000018D2002089140008E5140008E51400083F
:10001000E5140008E5140008E514000800000000DD
:10002000000000000000000000000000992C000803
:10003000E514000800000000692D0008A52D000847
:10004000E5140008E5140008E5140008E5140008AC
:10005000E5140008E5140008E5140008E51400089C
:10006000E5140008E5140008E5140008E51400088C
:10007000E5140008E5140008E5140008E51400087C
:10008000E5140008E5140008E5140008E51400086C
:10009000E5140008E5140008E5140008E51400085C
:1000A000E5140008E5140008E5140008E51400084C
:1000B000E5140008E5140008E5140008E51400083C
:1000C000E5140008E5140008E5140008E51400082C
:1000D000E5140008E5140008E5140008E51400081C
:1000E000E5140008E5140008E5140008E51400080C
:1000F000E5140008E5140008E5140008E5140008FC
:10010000E5140008E5140008E5140008E5140008EB
:10011000E5140008E5140008E5140008E5140008DB
:10012000E5140008E5140008E5140008E5140008CB
:10013000E5140008E5140008E5140008E5140008BB
:10014000E5140008E5140008E5140008E5140008AB
:10015000E5140008E5140008E5140008E51400089B
:10016000E5140008E5140008E5140008E51400088B
:10017000E5140008E5140008E5140008E51400087B
:10018000E5140008E514000880B586B000AF2B48E0
:1001900002F032FE4FF40010012101F0CDFA4FF4CD
:1001A0000010002101F0C8FA4FF40010012101F005
:1001B000C3FA0220012101F0A1FAC0233B6102230E
:1001C0003B7502237B750123BB750023FB7507F18B
:1001D00010031B48194602F007FA194806210422A9
:1001E00002F0ACFA16480721042202F0A7FA154BD8
:1001F0003B600023BB804BF6FF73FB8000233B81F9
:1002000000237B814FF48043BB813B460B4819465A
:1002100002F02CFE0948012102F0EAFE07480A49D3
:1002200003F006F80548094903F002F803480849B5
:1002300002F0FEFF1837BD4680BD00BF00540040ED
:1002400000040240801A06000004001000020010A2
:100250000001001000000000B0B584B000AF07F14D
:1002600008032820194600F023F93B7ADAB27B7A9A
:10027000DBB21046194600F0E9FA03463B80BB7A30
:10028000DAB2FB7ADBB21046194600F0DFFA034619
:100290007B803B7BDAB27B7BDBB21046194600F0F9
:1002A000D5FA0346BB803A88454B1A807B881BB23F
:1002B000184603F0BBFE04460D46BB881BB2184629
:1002C00003F0B4FE02460B462046294603F0B6FA78
:1002D00002460B461046194637A3D3E9002303F024
:1002E00059FD02460B461046194604F0C7F902466E
:1002F000344B1B681046194604F01EFB03461A4691
:100300002F4B1A61BB881BB2184603F08FFE0446C0
:100310000D463B881BB2184603F088FE02460B468A
:100320002046294603F08AFA02460B461046194633
:1003300021A3D3E9002303F02DFD02460B4610460E
:10034000194604F09BF902461E4B1B6810461946DD
:1003500004F0F2FA034618461B4904F0E3F9034699
:100360001A46174B5A61164B1B691846174904F079
:100370009FFC0346002B09D0114B1B6918461449FA
:1003800004F0D0F903461A460D4B1A610C4B5B6919
:1003900018460E4904F08CFC0346002B09D0084B8C
:1003A0005B6918460A4904F0BDF903461A46044B36
:1003B0005A611037BD46B0BD182D4454FB21094089
:1003C000A8C90020000000200000B442000034430F
:1003D0000000B443AFF3008080B500AF19202021A6
:1003E000572200F009F819202321282200F004F8F0
:1003F00000F0A4F980BD00BF80B582B000AF134605
:100400000246FA710A46BA717B7100BF24484FF464
:10041000003102F0D9FE0346002BF7D1204801211C
:1004200002F064FE1E48012102F002FE00BF1C48DB
:100430001C4902F099FE0346002BF8D0FB795B00C3
:10044000DBB217481946002202F032FE00BF144802
:10045000154902F089FE0346002BF8D0BB791048FD
:10046000194602F063FE00BF0D48104902F07CFE01
:100470000346002BF8D07B790948194602F056FE56
:1004800000BF0748094902F06FFE0346002BF8D071
:100490000348012102F0ECFD0837BD4680BD00BFD6
:1004A00000540040010003008200070084000700A0
:1004B00090B583B000AF03463960FB7100BF5C4864
:1004C0004FF4003102F080FE0346002BF7D158486C
:1004D000012102F00BFE5648012102F0A9FD00BFE8
:1004E0005348544902F040FE0346002BF8D05048D0
:1004F0003221002202F0DCFD00BF4D484E4902F0DF
:1005000033FE0346002BF8D0FB7963F07F03DBB2A8
:100510004748194602F00AFE00BF4548474902F025
:1005200023FE0346002BF8D04148012102F080FD54
:1005300000BF3F483F4902F017FE0346002BF8D0AA
:100540003B483221012202F0B3FD00BF38483C494C
:1005500002F00AFE0346002BF8D000BF34483949A8
:1005600002F002FE0346002BF8D0314802F0EEFD07
:100570000346DAB23B681A7000BF2D48314902F0D9
:10058000F3FD0346002BF8D03B685C1C284802F0C2
:10059000DDFD0346DBB2237000BF2548294902F088
:1005A000E3FD0346002BF8D03B689C1C204802F07A
:1005B000CDFD0346DBB2237000BF1D48214902F088
:1005C000D3FD0346002BF8D03B68DC1C184802F032
:1005D000BDFD0346DBB2237000BF1548194902F088
:1005E000C3FD0346002BF8D03B681C1D104802F0E9
:1005F000ADFD0346DBB223700D48002102F076FD0D
:100600000B48012102F034FD00BF09480D4902F0FA
:10061000ABFD0346002BF8D03B685C1D044802F09C
:1006200095FD0346DBB223700C37BD4690BD00BF7D
:10063000005400400100030082000700840007000E
:10064000020003004000030080B584B000AF034601
:10065000FB71FF23FB7300BF32484FF4003102F0FF
:10066000B3FD0346002BF7D12E48012102F03EFDD9
:100670002C48012102F0DCFC00BF2A482A4902F084
:1006800073FD0346002BF8D026483221002202F0E9
:100690000FFD00BF2348254902F066FD0346002BED
:1006A000F8D0FB791F48194602F040FD00BF1D48F5
:1006B0001F4902F059FD0346002BF8D019480121CB
:1006C00002F0B6FC00BF1748174902F04DFD034683
:1006D000002BF8D013483221012202F0E9FC00BFC0
:1006E0001048144902F040FD0346002BF8D00D4895
:1006F000002102F0FBFC0B48012102F0B9FC00BF15
:1007000008480D4902F030FD0346002BF8D005489B
:1007100002F01CFD0346FB73FB7B18461037BD46F9
:1007200080BD00BF005400400100030082000700AC
:1007300084000700020003004000030090B58BB066
:1007400000AF00237B6200233B620023FB61002398
:100750007B610023BB610AE03B1D28201946FFF79F
:10076000A7FE012001F064FCBB690133BB61BA69DB
:100770007B699A42F0DB02233B614FF47A73FB60A2
:100780000023BB6144E02920FFF75EFF03461B0204
:100790009CB22820FFF758FF0346224613439AB223
:1007A000294B9A832B20FFF74FFF03461B029CB275
:1007B0002A20FFF749FF0346224613439AB2224BF1
:1007C000DA832D20FFF740FF03461B029CB22C204A
:1007D000FFF73AFF0346224613439AB21A4B1A8494
:1007E000194B9B8B1BB27A6A13447B62164BDB8BD3
:1007F0001BB23A6A13443B62134B1B8C1BB2FA695F
:100800001344FB61386901F013FCBB690133BB6120
:10081000BA69FB689A42B6DB7A6AFB6892FBF3F32B
:100820009AB2094B9A833A6AFB6892FBF3F39AB245
:10083000054BDA83FA69FB6892FBF3F39AB2024B39
:100840001A842C37BD4690BDA8C9002080B485B05D
:1008500000AF02460B46FA71BB710023FB81BB79E6
:100860001B02FB81FB799BB21A46FB8913439BB2A7
:100870001BB218461437BD465DF8047B704700BFB5
:1008800080B58AB000AF7860396000237B620023B6
:100890003B620023FB610023BB617B681B8A9BB228
:1008A0007B627B6A23F440537B623B68DB887A6A15
:1008B00013437B627B6A9AB27B681A827B689B894E
:1008C0009BB27B627B6A23F4B05323F00C037B6200
:1008D0003B689A883B681B8913439AB23B685B89E3
:1008E00013439BB27A6A13437B627B6A9AB27B683A
:1008F0009A817B689B8A9BB27B627B6A23F44073FC
:100900007B623B689B897A6A13437B627B6A9AB2FB
:100910007B689A8207F10803184600F045FE7A6862
:10092000314B9A4203D07A68304B9A4202D17B69AC
:100930003B6201E03B693B627B689B899BB29BB257
:100940001BB2002B0CDA3A6A13469B0013449A0040
:100950001A443B681B685B00B2FBF3F3FB610BE0DE
:100960003A6A13469B0013449A001A443B681B687A
:100970009B00B2FBF3F3FB61FA691D4BA3FB02136F
:100980005B091B017B627B6A1B09642202FB03F388
:10099000FA69D31ABB617B689B899BB29BB21BB27D
:1009A000002B0DDABB69DB0003F13202104BA3FB15
:1009B00002135B0903F007037A6A13437B620CE0BE
:1009C000BB691B0103F13202094BA3FB02135B0954
:1009D00003F00F037A6A13437B627B6A9AB27B68E7
:1009E0001A812837BD4680BD001001400014014027
:1009F0001F85EB5180B483B000AF78600B46FB706D
:100A0000FB78002B08D07B689B899BB243F4005392
:100A10009AB27B689A8107E07B689B899BB223F43A
:100A200000539AB27B689A810C37BD465DF8047B0F
:100A3000704700BF80B483B000AF78600B467B8006
:100A40007B88C3F308039AB27B689A800C37BD4653
:100A50005DF8047B704700BF80B485B000AF78605C
:100A60000B467B800023FB737B681B889AB27B88D4
:100A700013409BB2002B02D00123FB7301E0002343
:100A8000FB73FB7B18461437BD465DF8047B70474B
:100A900080B582B000AF0420012100F02FFE4FF49A
:100AA00000533B6001233B710023BB7103237B7127
:100AB0000023FB713B460348194601F095FD0837BA
:100AC000BD4680BD0008024080B584B000AF7860AC
:100AD000FA23FB60FFF7DCFF00F00AF8F86801F08A
:100AE000A7FA00F00FF8F86801F0A2FAF4E700BFE7
:100AF00080B500AF02484FF4005101F003FE80BD05
:100B00000008024080B500AF02484FF4005101F0E8
:100B100007FE80BD0008024080B500AF00F094F9E8
:100B2000FFF75AFC014B01221A7080BDE4C9002076
:100B30002DE9B04388B000AF78600A23FB61604BB9
:100B4000BB614FF000033B614FF00003FB60FFF718
:100B5000E3FF01F06FFB03467B6100F0B9F8FFF79C
:100B60007BFBB86903F074FA04460D463B691846EE
:100B700003F06EFA80468946524B1B68184603F014
:100B800067FA02460B46104619464BA3D3E90023E9
:100B900003F0B2FA02460B464046494603F0FAF823
:100BA00002460B462046294603F0A6FA02460B46AB
:100BB00014461D464FF07E50B96903F0B3FD03465D
:100BC0001A46414B1B691046194603F0B5FE034611
:100BD000184603F03DFA02460B462046294603F02C
:100BE000D9F802460B461046194603F047FD034666
:100BF0003B61B86903F02CFA04460D46FB681846C1
:100C000003F026FA804689462E4B5B68184603F0AF
:100C10001FFA02460B461046194627A3D3E90023C4
:100C200003F06AFA02460B464046494603F0B2F822
:100C300002460B462046294603F05EFA02460B4662
:100C400014461D464FF07E50B96903F06BFD034614
:100C50001A461D4B5B691046194603F06DFE0346AC
:100C6000184603F0F5F902460B462046294603F0E4
:100C700091F802460B461046194603F0FFFC034666
:100C8000FB603A69114B1A60FA68104B5A600D4BC1
:100C90001A680E4BDA600B4B5A680C4B1A61094B01
:100CA0009A680A4B5A6107F114031846F96901F072
:100CB00057F94EE7AFF300807B14AE47E17A843FEB
:100CC000EC51783FE8C90020A8C90020CCC9002019
:100CD00090B587B000AF07F110032820194600F047
:100CE0003DF93B7CDAB27B7CDBB21046194600F062
:100CF000C7F903469AB2514B1B8B9BB2D31A9BB2D6
:100D00009BB23B81BB7CDAB2FB7CDBB2104619465E
:100D100000F0B6F903469AB2484B5B8B9BB2D31AEC
:100D20009BB29BB27B813B7DDAB27B7DDBB210460E
:100D3000194600F0A5F903469AB2404B9B8B9BB233
:100D4000D31A9BB29BB2BB8107F108023B46104607
:100D50001946032202F0CCFA7A88384BDA837A8972
:100D6000364BDA833B881BB2184603F091FD0246EE
:100D7000334B1B681046194603F0DEFD03461A4646
:100D80002E4B1A607B881BB2184603F081FD024689
:100D90002B4B1B681046194603F0CEFD03461A463E
:100DA000264B5A60BB881BB2184603F071FD024601
:100DB000234B1B681046194603F0BEFD03461A4636
:100DC0001E4B9A601D4BDC681C4B1A681D4B1B6840
:100DD0001046194603F0B0FD03462046194603F0BD
:100DE000A3FC03461A46154BDA60144B1C69134BDF
:100DF0005A68144B1B681046194603F09DFD0346C4
:100E00002046194603F090FC03461A460B4B1A6124
:100E10000A4B5C69094B9A680A4B1B6810461946D5
:100E200003F08AFD03462046194603F07DFC034685
:100E30001A46024B5A611C37BD4690BDE8C90020D6
:100E4000040000200800002080B500AFFFF79CF9E7
:100E500020200F2100F02EF92320002100F02AF994
:100E600000F07EF980BD00BF80B584B000AF0346BE
:100E7000FB71FF23FB7300BF32484FF4003102F0D7
:100E8000A3F90346002BF7D12E48012102F02EF9D9
:100E90002C48012102F0CCF800BF2A482A4902F070
:100EA00063F90346002BF8D02648D621002202F031
:100EB000FFF800BF2348254902F056F90346002BEE
:100EC000F8D0FB791F48194602F030F900BF1D48E1
:100ED0001F4902F049F90346002BF8D019480121B7
:100EE00002F0A6F800BF1748174902F03DF9034683
:100EF000002BF8D01348D621012202F0D9F800BF08
:100F00001048144902F030F90346002BF8D00D4880
:100F1000002102F0EBF80B48012102F0A9F800BF14
:100F200008480D4902F020F90346002BF8D0054887
:100F300002F00CF90346FB73FB7B18461037BD46E5
:100F400080BD00BF00540040010003008200070084
:100F500084000700020003004000030090B585B044
:100F600000AF03463960FB710623FB6000BF3E48BB
:100F70004FF4003102F028F90346002BF7D13A482C
:100F8000012102F0B3F83848012102F051F800BF06
:100F90003548364902F0E8F80346002BF8D03248CD
:100FA000D621002202F084F800BF2F48304902F019
:100FB000DBF80346002BF8D0FB7963F07F03DBB24C
:100FC0002948194602F0B2F800BF2748294902F023
:100FD000CBF80346002BF8D02348012102F028F873
:100FE00000BF2148214902F0BFF80346002BF8D08A
:100FF0001D48D621012202F05BF800BF1A481E49A5
:1010000002F0B2F80346002BF8D026E0FB68012B73
:101010000FD11548002102F069F81348012102F0B0
:1010200027F800BF1048154902F09EF80346002B30
:10103000F8D000BF0C48114902F096F80346002B87
:10104000F8D0FB683A68D418074802F07FF80346E6
:10105000DBB22370FB68013BFB60FB68002BD5D142
:101060001437BD4690BD00BF00540040010003008E
:101070008200070084000700020003004000030014
:1010800080B485B000AF02460B46FA71BB710023F5
:10109000FB81BB791B02FB81FB799BB21A46FB8962
:1010A00013439BB21BB218461437BD465DF8047B50
:1010B000704700BF80B582B000AF02460B46FA71A0
:1010C000BB7100BF22484FF4003102F07DF80346A7
:1010D000002BF7D11E48012102F008F81C4801211D
:1010E00001F0A6FF00BF1A481A4902F03DF8034676
:1010F000002BF8D01648D621002201F0D9FF00BFFE
:101100001348154902F030F80346002BF8D0FB795C
:101110000F48194602F00AF800BF0D480F4902F0C7
:1011200023F80346002BF8D0BB790948194601F093
:10113000FDFF00BF0648094902F016F80346002BE0
:10114000F8D00348012101F093FF0837BD4680BD68
:1011500000540040010003008200070084000700E3
:1011600090B58BB000AF00237B6200233B6200236D
:10117000FB6100237B610023BB610AE03B1D28204B
:101180001946FFF7EBFE012000F052FFBB69013367
:10119000BB61BA697B699A42F0DB02233B614FF481
:1011A0009673FB600023BB6144E02920FFF75CFEDF
:1011B00003461B029CB22820FFF756FE0346224638
:1011C00013439AB2294B1A832B20FFF74DFE034697
:1011D0001B029CB22A20FFF747FE03462246134318
:1011E0009AB2224B5A832D20FFF73EFE03461B0284
:1011F0009CB22C20FFF738FE0346224613439AB2D6
:101200001A4B9A83194B1B8B1BB27A6A13447B626D
:10121000164B5B8B1BB23A6A13443B62134B9B8B9E
:101220001BB2FA691344FB61386900F001FFBB6926
:101230000133BB61BA69FB689A42B6DB7A6AFB6824
:1012400092FBF3F39AB2094B1A833A6AFB6892FB5A
:10125000F3F39AB2054B5A83FA69FB6892FBF3F3F6
:101260009AB2024B9A832C37BD4690BDE8C9002044
:1012700080B485B000AF786039600023FB60002344
:10128000BB60134B1B68FB607B6840F6FE7202FA82
:1012900003F3DB43FA681340FB603B681A683B6862
:1012A0005B681A433B689B681A433B68DB681343DF
:1012B000BB607B68BA6802FA03F3FA681343FB6009
:1012C000034BFA681A601437BD465DF8047B70471B
:1012D0000074004080B483B000AF78600B46FB70B0
:1012E000FB78002B09D00C4B0B4A11687A6801205F
:1012F00000FA02F20A431A6009E0074B064A116835
:101300007A68012000FA02F2D2430A401A600C37D0
:10131000BD465DF8047B70470074004080B485B022
:1013200000AF78600B467B800023FB60074BFB60BF
:10133000FA687B6813440833FB60FB687A881A609C
:101340001437BD465DF8047B704700BF0074004051
:1013500080B500AF2020012100F00CFA042001210B
:1013600000F0CCF980BD00BF80B582B000AFC023D3
:101370003B6002233B710023BB710023FB71002300
:101380007B713B460848194601F02EF906480621B4
:10139000082201F0D3F904480721082201F0CEF910
:1013A0000837BD4680BD00BF0008024080B584B04C
:1013B00000AF4FF4E1333B600023BB800023FB8090
:1013C00000233B810023BB810C237B813B460548E6
:1013D0001946FFF755FA03480121FFF70BFB1037B9
:1013E000BD4680BD0014014080B500AFFFF7B0FFDF
:1013F000FFF7BAFFFFF7DAFF80BD00BF80B582B00C
:1014000000AF0346FB7100BF07488021FFF724FBB4
:101410000346002BF8D0FB799BB203481946FFF72F
:1014200009FB0837BD4680BD0014014080B582B07D
:1014300000AF786006E07B685A1C7A601B7818461B
:10144000FFF7DCFF7B681B78002BF4D10837BD4623
:1014500080BD00BF80B58EB002AFF860B9607A6021
:1014600007F110037A68009218460649FA68BB68CB
:1014700000F05EFC07F110031846FFF7D7FF303786
:10148000BD4680BD084E000880B582B000AF104B4D
:101490007B60104B3B6007E03B681A1D3A607A683E
:1014A000111D796012681A603A680B4B9A42F3D3A7
:1014B0000A480B494FF000028842B8BF40F8042B9D
:1014C000FFF6FAAF00F018F80837BD4680BD00BF40
:1014D000884E00080000002020000020200000208E
:1014E00018CA002080B400AFFEE700BF80B400AF90
:1014F000BD465DF8047B704780B584B004AF01F051
:1015000017FAFFF771FFFFF7C3FA012300930023D7
:10151000019300230293002303931B481B494FF4BC
:101520000072002300F078FC012300930023019354
:101530000023029300230393154816494FF40072C9
:10154000002300F069FC0123009300230193002392
:10155000029300230393104810494FF400720023B4
:1015600000F05AFC0123009300230193002302930F
:10157000002303930A480B494FF40072002300F044
:101580004BFC00F09BFDFEE7C90A0008144E000862
:10159000310B0008204E00087D2A00082C4E000860
:1015A00005370008344E000880B489B000AF786079
:1015B0000023BB6100237B610023FB6102233B61AD
:1015C0000023FB600223BB60484B9B6803F00C03C5
:1015D000BB61BB69042B07D0082B09D0002B3FD17E
:1015E0007B68434A1A603FE07B68424A1A603BE0EE
:1015F0003E4B5B6803F480039B0DFB603B4B5B68D9
:1016000003F03F03BB60FB68002B0DD0394ABB6879
:10161000B2FBF3F2354B596847F6C0730B409B0998
:1016200003FB02F3FB610CE0314ABB68B2FBF3F24F
:101630002E4B596847F6C0730B409B0903FB02F31E
:10164000FB612A4B5B6803F440331B0C01335B00E6
:101650003B61FA693B69B2FBF3F27B681A6003E015
:101660007B68234A1A6000BF204B9B6803F0F0039D
:10167000BB61BB691B09BB611F4ABB6913441B7873
:10168000DBB27B617B681A687B69DA407B685A60F1
:10169000164B9B6803F4E053BB61BB699B0ABB61BB
:1016A000154ABB6913441B78DBB27B617B685A68BF
:1016B0007B69DA407B689A600C4B9B6803F460435B
:1016C000BB61BB695B0BBB610B4ABB6913441B78F5
:1016D000DBB27B617B685A687B69DA407B68DA60E1
:1016E0002437BD465DF8047B704700BF00380240D8
:1016F0000024F400001BB7000C00002080B483B06D
:1017000000AF78600B46FB70FB78002B06D0094BCE
:10171000084A116B7A680A431A6306E0054B054ACA
:10172000116B7A68D2430A401A630C37BD465DF8E4
:10173000047B70470038024080B483B000AF78600B
:101740000B46FB70FB78002B06D0094B084A116C46
:101750007A680A431A6406E0054B054A116C7A68F8
:10176000D2430A401A640C37BD465DF8047B7047CB
:101770000038024080B483B000AF78600B46FB7045
:10178000FB78002B06D0094B084A516C7A680A4353
:101790005A6406E0054B054A516C7A68D2430A4008
:1017A0005A640C37BD465DF8047B70470038024030
:1017B00080B483B000AF78600B46FB70FB78002BE1
:1017C00006D0094B084A116A7A680A431A6206E091
:1017D000054B054A116A7A68D2430A401A620C37EF
:1017E000BD465DF8047B70470038024080B483B08A
:1017F00000AF78600B46FB707B68FA781A700123A3
:1018000018460C37BD465DF8047B704780B485B040
:1018100000AF786039600023FB600AE07B685A1CE7
:101820007A603A68511C396012781A70FB6801338B
:10183000FB603B681B78002BF0D1FB68184614371F
:10184000BD465DF8047B704780B586B000AFF86098
:101850007A603B600B46FB7200237B617B68013B37
:101860007B603B68092B10D93A681E4BA3FB02131F
:10187000DB08FA7AF86811467A68FFF7E5FF7861C5
:101880007B69FA681344FB6011E00DE0FB7AF868AD
:101890001946FFF7ABFFFB680133FB607B6901333F
:1018A0007B617B68013B7B607B68002BEEDC3968E9
:1018B0000C4BA3FB0123DA0813469B0013445B0087
:1018C000CA1AD3B23033DBB2F8681946FFF78EFF7D
:1018D00003467A6913447B617B6918461837BD4615
:1018E00080BD00BFCDCCCCCC80B586B000AFF86059
:1018F0007A603B600B46FB7200237B613B68002BE8
:1019000003DA3B685B423B6101E03B683B617B681B
:10191000013B7B603B69092B21D93B68002B0DDA29
:101920003A692F4BA3FB0213DB085B42FA7AF86893
:1019300011467A68FFF7D8FF78610BE03A69284BC7
:10194000A3FB0213DB08FA7AF86811467A68FFF7FE
:10195000CBFF78617B69FA681344FB6026E03B6843
:10196000002B03DA7B68013B7B600EE00DE0FB7A25
:10197000F8681946FFF73AFFFB680133FB607B69A3
:1019800001337B617B68013B7B607B68002BEEDC75
:101990003B68002B0ADAF8682D21FFF727FF034682
:1019A0007A6913447B61FB680133FB6039690C4B36
:1019B000A3FB0123DA0813469B0013445B00CA1AF9
:1019C000D3B23033DBB2F8681946FFF70FFF034696
:1019D0007A6913447B617B6918461837BD4680BD20
:1019E000CDCCCCCC80B588B002AFF8607A600A4626
:1019F000FA72BB7200237B617B68013B7B603B6AB0
:101A00001B09002B12D03B6A1909FA7ABB7A0091A4
:101A1000F86811467A68FFF7E5FF03467A691344D0
:101A20007B617B69FA681344FB6011E00DE0FB7A8F
:101A3000F8681946FFF7DAFEFB680133FB607B6943
:101A400001337B617B68013B7B607B68002BEEDCB4
:101A50003B6A03F00F03092B0BD83B6ADBB203F0A0
:101A60000F03DBB23033DBB2F8681946FFF7BEFE76
:101A700019E0BB7A002B0BD03B6ADBB203F00F03FB
:101A8000DBB23733DBB2F8681946FFF7AFFE0AE086
:101A90003B6ADBB203F00F03DBB25733DBB2F8680B
:101AA0001946FFF7A3FE7B6901337B617B6918460A
:101AB0001837BD4680BD00BF80B58AB002AFF86060
:101AC000B9607A603B600023BB6100237B61FB68E7
:101AD000002B03D0FB6800221A70F8E0F7E07B6867
:101AE0001B78252B0BD0FB685A1CFA607A68511CB6
:101AF000796012781A707B6901337B61E7E07B685B
:101B000001331B78252B0BD1FB685A1CFA60252268
:101B10001A707B6802337B607B6901337B61D6E09E
:101B20002023FB770023BB777B6801337B607B68D6
:101B30001B78302B05D13023FB777B6801337B602A
:101B40000FE00EE0BB7F1A46920013445B00DAB24E
:101B50007B681B781344DBB2303BBB777B68013377
:101B60007B607B681B782F2B03D97B681B78392B14
:101B7000E8D9BA7F7B6913441A46BB689A4205D9F3
:101B8000BB68DAB27B69DBB2D31ABB777B681B78A0
:101B9000583B202B00F28D8001A252F823F000BFA9
:101BA0006D1C0008B31C0008B31C0008B31C00081F
:101BB000B31C0008B31C0008B31C0008B31C0008C9
:101BC000B31C0008B31C0008B31C00089D1C0008CF
:101BD000251C0008B31C0008B31C0008B31C000837
:101BE000B31C0008251C0008B31C0008B31C000827
:101BF000B31C0008B31C0008B31C0008B31C000889
:101C0000B31C0008B31C0008B31C0008891C0008A2
:101C1000B31C00083B1C0008B31C0008B31C0008E0
:101C2000511C0008BA7F3B68191D39601B68F97F99
:101C3000F868FFF759FEB8613EE0BA7F3B68191DAE
:101C400039601B68F97FF868FFF7FEFDB86133E083
:101C5000BA7F3B68191D39601968FB7F0091F868ED
:101C600019460023FFF7BEFEB86125E0BA7F3B6846
:101C7000191D39601968FB7F0091F8681946012326
:101C8000FFF7B0FEB86117E03B681A1D3A601B68A9
:101C9000F8681946FFF7BAFDB8610DE03B681A1DF8
:101CA0003A601B68DBB2F8681946FFF79FFDB86120
:101CB00002E04FF0FF3325E07B6801337B60BB69B6
:101CC000FA681344FB607A69BB6913447B617B68E3
:101CD0001B78002B04D07A69BB689A42FFF4FFAEF0
:101CE0007A69BB689A4203D2FB6800221A7008E046
:101CF000FB68013BFB60FB6800221A707B69013BBB
:101D00007B617B6918462037BD4680BD80B584B0B5
:101D100000AFF860B9607A60F8686421BA687B68DF
:101D2000FFF7CAFE034618461037BD4680BD00BF08
:101D30000EB480B585B000AF786007F12003BB60BA
:101D40007868F969BA68FFF7E1FFF860FB68184640
:101D50001437BD46BDE8804003B0704780B584B0FD
:101D600000AF786040F6FF73FB607B68642B01DD99
:101D700064237B607B6813F1640F02DA6FF0630306
:101D80007B60FB68094A82FB03125211DB17D31AEE
:101D90007A6802FB03F3BB60BB689BB20020194664
:101DA000FFF7BCFA1037BD4680BD00BF1F85EB5161
:101DB00080B586B000AF00F0BBFD4FF000500121B0
:101DC000FFF7BAFC01200121FFF798FC03233B75C4
:101DD00010233B6107F110030E48194600F004FC84
:101DE0000023BB600223FB6000233B6000237B6079
:101DF0003B4600201946FFF73BFA002040F2FF71F6
:101E0000FFF78CFA00200121FFF764FA1837BD466E
:101E100080BD00BF0000024080B58AB002AFF8600C
:101E2000B9603B601346FB80FB881846396B00F0B5
:101E300099FBB861BB69002B66D0BB691A6BFB8844
:101E400003F18043013B9B0013447B617B6923F0DA
:101E500007037B61FB880093B869B968BA6A7B6B3A
:101E600000F0CAFA7869F9683A6800F0EBFE0246B9
:101E7000BB691A6000F050FF324B1B685A1C314B93
:101E80001A60304B1B68012B05D12F4BBA691A60C1
:101E900000F0E8FA0CE02D4B1B68002B08D12A4B10
:101EA0001B68DA6ABB6A9A4202D8274BBA691A6081
:101EB000BB69DA6A264B1B689A4203D9BB69DA6AA6
:101EC000234B1A60234B1B685A1C224B1A60BB69B8
:101ED000DA6A214B1B689A4203D9BB69DA6A1E4B46
:101EE0001A60BB69DA6A13469B0013449B001B4AC5
:101EF0001A44BB6904331046194600F091FC0123D3
:101F0000FB6100F01BFF02E04FF0FF33FB61FB6958
:101F1000012B11D1FB6A002B02D0FB6ABA691A604F
:101F20000A4B1B68002B07D0074B1B68DA6ABB6A99
:101F30009A4201D200F0E4FEFB6918462037BD4604
:101F400080BD00BF5C010020200000206C0100204B
:101F5000640100208001002068010020240000208E
:101F600080B586B000AF7860396000237B6100F0F7
:101F7000D3F87B681A683B6813443B617B681A6836
:101F8000274B1B689A420CD97B681A683B699A42B6
:101F900013D9234B1B683A699A420ED901237B61FE
:101FA0000BE07B681A683B699A4204D81C4B1B689B
:101FB0003A699A4201D901237B617B683A691A60C8
:101FC0007B69002B21D0174B1B680433184600F0A7
:101FD00087FC144B1B683A695A60114B1B683A69BD
:101FE0009A4209D2104B1A680E4B1B6804331046F4
:101FF000194600F03DFC08E00C4B1A68094B1B68C1
:1020000004331046194600F033FC00F093F8F860F2
:10201000FB68002B01D100F073FE1837BD4680BD70
:102020006001002020000020180100201401002081
:1020300080B584B000AF78600023FB607B68002B24
:102040002BD000F069F8194B1A687B681344BB6009
:10205000174B1B680433184600F042FC144B1B68F6
:10206000BA685A60114B1B68BA689A4209D2114B80
:102070001A680F4B1B6804331046194600F0F8FB32
:1020800008E00D4B1A680A4B1B68043310461946CA
:1020900000F0EEFB00F04EF8F860FB68002B01D179
:1020A00000F02EFE1037BD4680BD00BF600100204D
:1020B00020000020180100201401002080B586B007
:1020C00004AF002300930023019300230293002315
:1020D00003930D480D494FF400720023FFF79CFE57
:1020E00078607B68012B0BD14FF0BF0080F3118823
:1020F000074B01221A60074B00221A6000F0E4FD32
:102100000837BD4680BD00BFD9230008404E0008F7
:102110006C0100206001002080B400AF044B1B68FC
:102120005A1C034B1A60BD465DF8047B704700BF24
:102130007001002090B583B000AF00237B6000F0F9
:10214000EBFD344B1B685A1E324B1A60314B1B6837
:10215000002B57D1304B1B68002B53D000233B6022
:1021600024E004F11803184600F0BAFB231D1846BA
:1021700000F0B6FBE26A294B1B689A4202D9E26A78
:10218000264B1A60E26A13469B0013449B00244AC4
:102190001A44231D1046194600F042FBE26A214B07
:1021A0001B68DB6A9A4201D301233B601E4B1B680C
:1021B000002B03D01C4BDB68DB6800E000231C46CF
:1021C000002CCED1194B1B68002B0DD006E000F07F
:1021D00043F8164B1B685A1E144B1A60134B1B68AE
:1021E000002BF4D101233B603B68012B03D0104B43
:1021F0001B68012B06D101237B600D4B00221A6066
:1022000000F07EFD00F09AFD7B6818460C37BD4655
:1022100090BD00BF700100205C010020680100201B
:1022200024000020200000201C0100207401002058
:102230007801002080B582B000AF00F06DFD054B45
:102240001B687B6000F07AFD7B6818460837BD4646
:1022500080BD00BF6001002090B583B000AF314B5E
:102260001B68002B4ED1304B1B685A1C2E4B1A603A
:102270002D4B1B68002B0FD12C4B1B687B602C4B0C
:102280001A682A4B1A602A4B7A681A60294B1B6815
:102290005A1C284B1A6026E025E06268224B1B6816
:1022A0009A4200D92DE0231D184600F019FBA36ABD
:1022B000002B04D004F11803184600F011FBE26A69
:1022C0001D4B1B689A4202D9E26A1B4B1A60E26AF4
:1022D00013469B0013449B00184A1A44231D1046C2
:1022E000194600F09DFA114B1B681B68002B04D0A7
:1022F0000E4B1B68DB68DB6800E000231C46002CEB
:10230000CBD106E00E4B1B685A1C0D4B1A60FFF731
:10231000EDF80B4B1B68002B01D1FFF7E7F80C37EA
:10232000BD4690BD70010020600100201401002016
:10233000180100207C0100206801002024000020FA
:102340007401002080B483B000AF1E4B1B68002BCB
:1023500003D01D4B01221A602EE004E01B4B1B68CA
:102360005A1E1A4B1A60194B1A68194913469B00DA
:1023700013449B000B441B68002BEFD0134B1A68CF
:1023800013469B0013449B00114A13447B607B68F7
:102390005B685A687B685A607B685A687B68083358
:1023A0009A4204D17B685B685A687B685A607B6894
:1023B0005B68DA68074B1A600C37BD465DF8047B32
:1023C000704700BF700100207801002068010020E4
:1023D000240000202000002080B582B000AF78608B
:1023E00000F07EF8034B1B68012B02D900F088FC3B
:1023F000F6E7F5E72400002080B584B000AFF86070
:10240000B9607A603B60FB6834331846B9681022C3
:1024100002F0C8FCFB68002283F843207B68092B8C
:1024200001D909237B60FB687A68DA62FB687A6805
:102430005A64FB680433184600F0E6F9FB68183369
:10244000184600F0E1F9FB68FA681A617B68C3F18D
:102450000A02FB689A61FB68FA685A621037BD4647
:1024600080BD00BF80B582B000AF00237B600CE070
:102470007A6813469B0013449B00114A1344184684
:1024800000F0A2F97B6801337B607B68092BEFD9F0
:102490000C4800F099F90C4800F096F90B4800F050
:1024A00093F90B4800F090F90A4800F08DF90A4BB7
:1024B000044A1A60094B044A1A600837BD4680BDB9
:1024C00024000020EC000020000100201C0100205E
:1024D00030010020480100201401002018010020D4
:1024E00080B582B000AF1B4B1B68002B2ED0FFF7CE
:1024F00013FE194B1B68002B14BF00230123DBB212
:102500007B60FFF717FE7B68002B1FD100F004FCF7
:10251000114B1B68002B03D0104B5B68DB6800E09D
:1025200000233B603B680433184600F0D9F90C4B9C
:102530001B685A1E0A4B1A60064B1B685A1E054B35
:102540001A6000F0FBFB386800F03EF80837BD4623
:1025500080BD00BF44010020300100203801002070
:102560005C01002080B584B000AF03463960FB8079
:10257000482000F0E7FEF860FB68002B1FD03B68A6
:10258000002B06D1FB889B00184600F0DBFE0346BB
:1025900000E03B68FA681363FB681B6B002B05D1F6
:1025A000F86800F073FF0023FB6008E0FB681A6B1B
:1025B000FB889B001046A5211A4602F0A9FBFB6888
:1025C00018461037BD4680BD80B582B000AF786038
:1025D0007B681B6B184600F059FF786800F056FFC7
:1025E0000837BD4680BD00BF80B487B000AF7860BB
:1025F000396000237B6100233B610023FB600023E3
:102600007B6176E07B69012202FA03F33B613B6860
:102610001A683B691340FB60FA683B699A4265D1CE
:102620007B681A687B695B00032101FA03F3DB43D3
:102630001A407B681A607B681A683B681B791946E8
:102640007B695B0001FA03F31A437B681A603B68FD
:102650001B79012B03D03B681B79022B2ED17B68A1
:102660009A687B695B00032101FA03F3DB431A409C
:102670007B689A607B689A683B685B7919467B69DE
:102680005B0001FA03F31A437B689A607B685A681F
:102690007B699BB2012101FA03F3DB431A407B689B
:1026A0005A607B685A683B689B7919467B699BB284
:1026B00001FA03F39BB21A437B685A607B68DA68BD
:1026C0007B699BB25B00032101FA03F3DB431A40F1
:1026D0007B68DA607B68DA683B68DB7919467B697E
:1026E0005B0001FA03F31A437B68DA607B6901330C
:1026F0007B617B690F2B85D91C37BD465DF8047B58
:10270000704700BF80B483B000AF78600B467B8019
:102710007B687A881A830C37BD465DF8047B704766
:1027200080B483B000AF78600B467B807B687A888A
:102730005A830C37BD465DF8047B704780B485B082
:1027400000AF786013460A467A807B700023FB60F6
:102750000023BB607A787B8803F007039B0002FAB2
:1027600003F3FB607B88DB089BB21A467B88DB089F
:102770009BB219467B68083153F821107B8803F01F
:1027800007039B000F2000FA03F3DB4319407B682B
:10279000083243F822107B88DB089BB21A467B681C
:1027A000083253F82220FB681343BB607B88DB08A8
:1027B0009BB21A467B680832B96843F82210143776
:1027C000BD465DF8047B704780B483B000AF78608D
:1027D0007B6803F108027B685A607B684FF0FF3228
:1027E0009A607B6803F108027B68DA607B6803F11A
:1027F00008027B681A617B6800221A600C37BD46AC
:102800005DF8047B704700BF80B483B000AF786090
:102810007B6800221A610C37BD465DF8047B704767
:1028200080B485B000AF786039607B685B68FB601E
:10283000FB685A683B685A607B685A683B689A60D4
:10284000FB685B683A689A60FB683A685A607B6824
:102850003A685A603B687A681A617B681B685A1C40
:102860007B681A601437BD465DF8047B704700BF73
:1028700080B485B000AF786039603B681B68BB608E
:10288000BB68B3F1FF3F03D17B681B69FB600CE0C1
:102890007B680833FB6002E0FB685B68FB60FB68F9
:1028A0005B681A68BB689A42F6D9FB685A683B684D
:1028B0005A603B685B683A689A603B68FA689A605D
:1028C000FB683A685A603B687A681A617B681B68E3
:1028D0005A1C7B681A601437BD465DF8047B70474C
:1028E00080B485B000AF78607B685B687A68926876
:1028F0009A607B689B687A6852685A607B681B693B
:10290000FB60FB685A687B689A4203D17B689A68CF
:10291000FB685A607B6800221A61FB681B685A1EBC
:10292000FB681A601437BD465DF8047B704700BF32
:1029300080B500AF114B114A126842F001021A60D3
:102940000E4B00229A600D4A0C4B1B6823F08473D7
:1029500023F480331360094B094A5A60074B074A36
:10296000126822F480221A60044B0022DA6000F020
:102970000BF8044B4FF000629A6080BD00380240B3
:102980001030002400ED00E080B483B000AF0023DD
:102990007B6000233B60354B344A126842F480323E
:1029A0001A60324B1B6803F400333B607B680133D1
:1029B0007B603B68002B03D17B68B3F5A06FF0D13F
:1029C0002A4B1B6803F40033002B02D001233B6029
:1029D00001E000233B603B68012B42D1234B234A9B
:1029E000126C42F080521A64214B214A126842F460
:1029F00080421A601D4B1D4A92689A601B4B1B4A0D
:102A0000926842F400429A60184B184A926842F465
:102A1000A0529A60154B174A5A60144B134A126819
:102A200042F080721A6000BF104B1B6803F0007305
:102A3000002BF9D0104B40F205621A600B4B0B4A89
:102A4000926822F003029A60084B084A926842F0AA
:102A500002029A6000BF054B9B6803F00C03082B31
:102A6000F9D10C37BD465DF8047B70470038024051
:102A7000007000400C544007003C0240B0B592B0DA
:102A800000AF78600A23BB634FF000037B63634BA6
:102A90003B634FF00003FB62614BBB62614B7B62A7
:102AA000604B3B624FF000033B645F4B00221A70A7
:102AB0005E4BFB63FFF77CF9FFF7BCFB0346FB6053
:102AC000594B1B78002B00F0A280594B1B69786B87
:102AD000194601F027FE0346FB61F869396B01F0E6
:102AE0002BFF0346BB61F869F96901F025FF034636
:102AF0001C46786A796A01F01FFF03462046194692
:102B000002F0D6F80346002B0AD0F869396A01F0C2
:102B100013FF0346786C194601F006FE03467B64FA
:102B2000786CB96A01F008FF03467B61386CF9697B
:102B300001F0F8FD03461846396A01F0B1FF03467B
:102B40001846F96A01F0F8FE03463B61FB693B64F5
:102B5000F86BB96901F0E6FD0346FB63F86B796930
:102B600001F0E2FD0346FB63F86B396901F0DCFD1F
:102B70000346FB63F86B2F4902F09AF80346002BDB
:102B800007D02C4BFB63786CF96901F0CBFD034651
:102B90007B64F86B284902F06DF80346002B07D0E0
:102BA000254BFB63786CF96901F0BCFD03467B643F
:102BB000B869224901F0C0FE0346184602F082F8C7
:102BC000054678691D4901F0B7FE0346184602F034
:102BD00079F804463869194901F0AEFE03461846F3
:102BE00002F070F80346284621461A46FEF732FCEA
:102BF000F86B02F067F80246114B1A600C4B5B68E9
:102C0000184602F05FF803461846FFF7A7F807F1E9
:102C10000C031846B96BFFF7A3F94DE7CDCC4C3D3B
:102C20000AD7A33C0AD7233CE4C900200000D744BC
:102C3000CCC900200000FA4400007A440000C842D9
:102C400014CA002080B485B000AFF860B9607A6023
:102C5000FB68043BFB60FB684FF080721A60FB6806
:102C6000043BFB60BA68FB681A60FB68043BFB60CE
:102C7000FB6800221A60FB68143BFB607A68FB6803
:102C80001A60FB68203BFB60FB6818461437BD46A2
:102C90005DF8047B704700BF064B19680868B0E810
:102CA000F00F80F309884FF0000080F311884EF098
:102CB0000D0E70472000002002480068006880F375
:102CC000088800DF08ED00E080B500AF0A4B0A4A33
:102CD000126842F47F021A60074B074A126842F0FA
:102CE0007F421A6000F076F8044B00221A60FFF76A
:102CF000E3FF0023184680BD20ED00E01C0000200B
:102D000080B400AF034B4FF080521A60BD465DF8AF
:102D1000047B704704ED00E080B400AF4FF0BF00CB
:102D200080F31188044B1B685A1C034B1A60BD4684
:102D30005DF8047B704700BF1C00002080B400AF2A
:102D4000084B1B685A1E074B1A60064B1B68002B6A
:102D500003D14FF0000080F31188BD465DF8047B7D
:102D6000704700BF1C000020EFF309800C4B1A686D
:102D700020E9F00F10602DE908404FF0BF0080F30C
:102D80001188FFF7DFFA4FF0000080F31188BDE8EB
:102D9000084019680868B0E8F00F80F309887047A8
:102DA0002000002080B582B000AF094B4FF0805268
:102DB0001A6000237B604FF0BF0080F31188FFF79B
:102DC0004BFA4FF0000080F311880837BD4680BDF4
:102DD00004ED00E080B400AF044B054A1A60054BD7
:102DE00007221A60BD465DF8047B704714E000E0DE
:102DF0003F90020010E000E080B582B000AF786044
:102E00007A68174B9A420AD14FF400100121FEF75D
:102E1000CFFC4FF400100021FEF7CAFC1CE07A68DA
:102E2000104B9A420AD14FF480000121FEF7C0FCFA
:102E30004FF480000021FEF7BBFC0DE07A680A4BDE
:102E40009A4209D14FF400000121FEF7B1FC4FF482
:102E500000000021FEF7ACFC0837BD4680BD00BF76
:102E60000054004000580040005C004080B58AB02B
:102E700000AF786039600023FB8400237B84042347
:102E8000BB84574BFB617B689B88FB84FB8C23F0E6
:102E90003F03FB8407F10C031846FEF785FB7B69B3
:102EA000FB61FA694F4BA3FB02139B0C7B84FA8CEA
:102EB0007B8C1343FB847B68FA8C9A807B681B882D
:102EC0009BB223F001039AB27B681A800023FB8433
:102ED0003B681A68444B9A4215D83B681B685B00F4
:102EE000FA69B2FBF3F3BB84BB8C032B01D8042338
:102EF000BB84FA8CBB8C1343FB847B8C01339AB26A
:102F00007B681A8440E03B68DA884BF6FF739A428C
:102F100009D13B681A6813465B001344FA69B2FB97
:102F2000F3F3BB840EE03B681A6813469B0013441E
:102F30009A001344FA69B2FBF3F3BB84BB8C43F4ED
:102F40008043BB84BB8CC3F30B03002B03D1BB8C2E
:102F500043F00103BB84BA8CFB8C13439BB26FEA32
:102F600043436FEA5343FB847B8C4FF4967202FB1E
:102F700003F31E4A82FB03129211DB17D31A9BB292
:102F800001339AB27B681A847B68FA8C9A837B68D7
:102F90001B889BB243F001039AB27B681A807B685E
:102FA0001B88FB84FB8C23F4816323F00203FB84E6
:102FB0003B689A883B685B8913439AB2FB8C134346
:102FC000FB847B68FA8C1A803B689A893B681B8972
:102FD00013439AB27B681A812837BD4680BD00BF73
:102FE00000127A0083DE1B43A0860100D34D6210DD
:102FF00080B483B000AF78600B46FB70FB78002B89
:1030000008D07B681B889BB243F001039AB27B68AF
:103010001A8007E07B681B889BB223F001039AB2F9
:103020007B681A800C37BD465DF8047B704700BF93
:1030300080B483B000AF78600B46FB70FB78002B48
:1030400008D07B681B889BB243F480739AB27B687C
:103050001A8007E07B681B889BB223F480739AB2C6
:103060007B681A800C37BD465DF8047B704700BF53
:1030700080B483B000AF78600B46FB70FB78002B08
:1030800008D07B681B889BB243F400739AB27B68BC
:103090001A8007E07B681B889BB223F400739AB206
:1030A0007B681A800C37BD465DF8047B704700BF13
:1030B00080B483B000AF786013460A46FA70BB70E4
:1030C000BB78002B04D0FB7843F00103FB7003E0D6
:1030D000FB7823F00103FB70FB789AB27B681A82BD
:1030E0000C37BD465DF8047B704700BF80B483B0E9
:1030F00000AF78600B46FB70FB78002B08D07B6834
:103100001B889BB243F480639AB27B681A8007E005
:103110007B681B889BB223F480639AB27B681A8019
:103120000C37BD465DF8047B704700BF80B483B0A8
:1031300000AF78600B46FB70FB789AB27B681A820E
:103140000C37BD465DF8047B704700BF80B483B088
:1031500000AF78607B681B8A9BB2DBB218460C37E5
:10316000BD465DF8047B704780B487B000AF7860DF
:10317000396000233B610023FB600023BB60002318
:10318000FB757B689B8A9BB2FB607B681B8B9BB249
:10319000BB60BB681B04BB60FA68BB68134323F0C9
:1031A0007F433B613A693B681A403B689A4202D1CF
:1031B0000123FB7501E00023FB75FB7D18461C37DE
:1031C000BD465DF8047B704780B487B000AF78607F
:1031D00039600023FB7500233B610023FB607B68A3
:1031E000FB603B681B0F3B613B6823F07F433B6008
:1031F0003B69002B03D0FB681433FB6005E03B68A0
:103200001B0C3B60FB681833FB60FB681A683B686B
:103210001340002B02D00123FB7501E00023FB7556
:10322000FB7D18461C37BD465DF8047B704700BF28
:1032300080B485B000AF786039600023FB603B68E4
:1032400023F07F43FB60FB689BB2DB439AB27B6851
:103250009A821437BD465DF8047B70470000000079
:10326000B0B582B000AF78600B467B807B681B886E
:10327000002B05D17B687A881A807B681B882BE03D
:103280007B681B881BB2184600F0D0FE04460D4632
:10329000B7F902207B681B881BB2D31A184600F0CE
:1032A000C5FE02460B46104619460FA3D3E900237C
:1032B00000F022FF02460B462046294600F06AFD38
:1032C00002460B461046194601F0B0F903469AB281
:1032D0007B681A807B681B881BB218460837BD467E
:1032E000B0BD00BFAFF300809A9999999999B93F01
:1032F00090B587B000AFF860B9607A6000237B6159
:1033000016E07B695B00BA68D4187B695A000C4BE5
:103310001A447B695B00F9680B441B881BB210469A
:103320001946FFF79DFF034623807B6901337B61CC
:103330007A697B689A42E4DB1C37BD4690BD00BFCA
:103340008401002080B58AB000AF78600023FB6163
:10335000FEF7E2FE484B1B68002B1CD1474B484A46
:103360001A60464B00225A60464B4FF448425A605E
:10337000444B00221A60424B7B617B694FF4484208
:103380005A607B693F4A1A603F4B4FF448421A60CB
:10339000394B01221A607B68002B0DD010237A680C
:1033A00013447B607B6803F00703002B04D07B6829
:1033B00023F0070308337B607B68002B55D07B68C4
:1033C000B3F5484F51D22D4B3B622C4B1B687B62AF
:1033D00004E07B6A3B627B6A1B687B627B6A5A689B
:1033E0007B689A4203D27B6A1B68002BF1D17A6A10
:1033F000244B9A4239D03B6A1A6810231344FB616C
:103400007B6A1A683B6A1A607B6A5A687B68D21AC0
:1034100010235B009A4222D97A6A7B6813443B618D
:103420007B6A5A687B68D21A3B695A607B6A7A6801
:103430005A603B695B68FB60104BBB6102E0BB6993
:103440001B68BB61BB691B685A68FB689A42F6D36C
:10345000BB691A683B691A60BB693A691A600A4B12
:103460001A687B68D21A084B1A60FEF763FEFB6984
:1034700018462837BD4680BDA4C9002090C9002049
:103480009001002098C90020A0C9002080B586B016
:1034900000AF78607B683B617B68002B27D01023EE
:1034A0005B423A6913443B613B69FB60FEF734FEC3
:1034B000FB685B68BB600F4B7B6102E07B691B684C
:1034C0007B617B691B685A68BB689A42F6D37B694B
:1034D0001A68FB681A607B69FA681A60FB685A68A8
:1034E000054B1B681A44044B1A60FEF723FE18377D
:1034F000BD4680BD90C90020A0C9002080B485B021
:1035000000AF786039600023FB817B681B88FB81FA
:103510007A68284B9A4213D07A68274B9A420FD088
:103520007B68B3F1804F0BD07A68244B9A4207D066
:103530007A68234B9A4203D07A68224B9A4208D188
:10354000FB8923F07003FB813B685A88FB89134396
:10355000FB817A681C4B9A420CD07A681B4B9A42CA
:1035600008D0FB8923F44073FB813B681A89FB89EF
:103570001343FB817B68FA891A803B685A687B6831
:10358000DA623B681A887B681A857A68094B9A4226
:1035900003D07A68084B9A4204D13B689B7A1A465A
:1035A0007B681A867B6801229A821437BD465DF8D3
:1035B000047B70470000014000040140000400400B
:1035C00000080040000C00400010004000140040C3
:1035D00080B483B000AF78600B46FB70FB78002BA3
:1035E00008D07B681B889BB243F001039AB27B68CA
:1035F0001A8007E07B681B889BB223F001039AB214
:103600007B681A800C37BD465DF8047B704700BFAD
:1036100080B485B000AF7860396000237B810023DF
:10362000FB810023BB817B681B8C9BB223F00103D1
:103630009AB27B681A847B681B8CFB817B689B88B1
:10364000BB817B681B8B7B817B8923F070037B8133
:103650007B8923F003037B813B681A887B891343B2
:103660007B81FB8923F00203FB813B689A89FB89FC
:103670001343FB813B685A88FB891343FB817A68BB
:103680001E4B9A4203D07A681D4B9A4223D1FB8984
:1036900023F00803FB813B68DA89FB891343FB8134
:1036A000FB8923F00403FB813B689A88FB89134361
:1036B000FB81BB8923F48073BB81BB8923F4007336
:1036C000BB813B681A8ABB891343BB813B685A8A1A
:1036D000BB891343BB817B68BA899A807B687A89EE
:1036E0001A833B689A687B685A637B68FA891A84F4
:1036F0001437BD465DF8047B704700BF00000140F1
:103700000004014080B586B000AF786014237B616F
:1037100000F08EF840F2DC533B61154B00221A603A
:10372000144B3A691A60144B3A691A60134B3A69A0
:103730001A60FEF77FFD0346FB604FF080430C4AA2
:1037400012685A634FF080430A4A12689A634FF036
:103750008043094A1268DA634FF08043074A1268CF
:103760001A6407F10C0318467969FEF7F9FBE0E7E4
:1037700014CA002010CA00200CCA002008CA002069
:1037800080B58AB000AF01200121FDF7B7FF01200D
:103790000121FDF7D1FF254805210122FEF7CEFFCB
:1037A000022387F8243048F22C033B62032387F876
:1037B0002530002387F82630012387F8273007F1CA
:1037C00020031A481946FEF70FFF0023BB8300238E
:1037D000FB8244F62063BB615323BB8207F11403D1
:1037E0004FF080401946FFF789FE60233B8000239D
:1037F0003B824FF400737B820223BB810023FB8159
:1038000001237B800023BB804FF4FA63BB603B46FF
:103810004FF080401946FFF7FBFE4FF0804001213A
:10382000FFF7D6FE2837BD4680BD00BF000002402E
:1038300080B500AFFFF7A4FF80BD00BF00F000B867
:103840002DE9F047C2F1000949EA020923F00048D6
:10385000DFF8D4C148EAD97982B0E14514461D4663
:10386000CDE900010F4647D8C0F1000A4AEA000A34
:1038700021F0004949EADA7AE2453DD803F1404CAB
:103880000CF5801C5CEA020C4CD04FEAA37A0AF0DB
:10389000020A4AEAD17A59EA000136D058EA04010C
:1038A0003AD06149884551D05F49894534D0C8EB49
:1038B00009084FEA2858B8F13C0F43DC002D70DBB3
:1038C000DDE9000100F042FD00F05AFA00F0B0F826
:1038D000BAF1010F62D0BAF1020F52D0BAF1000F63
:1038E00010D03FA3D3E9002300F052FA3EA3D3E95E
:1038F000002300F04DFA05E010461946DDE90023EB
:1039000000F048FA02B0BDE8F087BAF1030FC5D85D
:10391000DFE80AF00D0D1410002F2EDB34A1D1E9E1
:103920000001EFE702B0BDE8F04700F081B8DDE943
:103930000001E7E730A1D1E90001E3E72AA1D1E9DD
:103940000001DFE72AA1D1E90001C1E7C1452ED07E
:10395000BAF1030FA8D801A151F82AF0753900086F
:103960006D3900083D3900083539000800204FF056
:103970000041C7E700200021C4E721A1D1E90001EF
:10398000C0E717A3D3E9002300F002FA02460B4672
:1039900015A1D1E9000100F0FBF9B3E701F1004105
:1039A000B0E718F13C0F8BDA0020002190E7BAF164
:1039B000030FB1D8DFE80AF006020E0A12A1D1E91E
:1039C00000019FE712A1D1E900019BE712A1D1E913
:1039D000000197E712A1D1E9000193E7AFF300805E
:1039E000075C143326A6A13C182D4454FB21094042
:1039F000182D4454FB21F93F182D4454FB2109C0D4
:103A0000182D4454FB21F9BF182D4454FB21E9BF64
:103A1000182D4454FB21E93FD221337F7CD902C0C9
:103A2000D221337F7CD902400000F07FAFF30080C9
:103A30002DE9F04FB64B21F000469E4283B004467C
:103A40000D4689460FDDB3498E4200F3B38000F086
:103A5000AE80B9F1000F40F3EF8091A1D1E90001F0
:103A600003B0BDE8F08FAC4B9E4200F3BD80A3F1E4
:103A7000DE739E4240F3A7804FF0FF3C22462B4668
:103A800020462946CDF804C000F036FB02460B461E
:103A900082468B4600F030FB83A3D3E90023064621
:103AA0000F4600F029FB82A3D3E9002300F072F94E
:103AB00032463B4600F020FB7FA3D3E9002300F011
:103AC00069F932463B4600F017FB7DA3D3E900239A
:103AD00000F060F932463B4600F00EFB7AA3D3E9D2
:103AE000002300F057F932463B4600F005FB78A36F
:103AF000D3E9002300F04EF952465B4600F0FCFA91
:103B000075A3D3E9002382468B463046394600F040
:103B1000F3FA73A3D3E9002300F03AF932463B46A7
:103B200000F0EAFA70A3D3E9002300F031F932463D
:103B30003B4600F0E1FA6EA3D3E9002300F028F938
:103B400032463B4600F0D8FA6BA3D3E9002300F0DD
:103B50001FF932463B4600F0CFFADDF804C0BCF155
:103B6000FF3F02460B466BD0504659464FEACC0603
:103B700000F010F922462B4600F0BEFA674F684B62
:103B800037441E44D6E9002300F002F922462B46B2
:103B900000F0FEF802460B46D7E9000100F0F8F805
:103BA000B9F1000F0CDA01F10045294608E00028C0
:103BB0003FF44FAF2046294622462B4600F0EAF854
:103BC00003B0BDE8F08F4EA3D3E9002300F0E2F884
:103BD0000022544B00F020FD00283FF44DAF20465A
:103BE000294603B0BDE8F08F00F0CAF84E4B9E4264
:103BF00004460D4633DCA3F550239E4200F3A58016
:103C000002460B4600F0C6F80022464B00F0C0F812
:103C1000002206460F46204629464FF0804300F01A
:103C2000B9F802460B463046394600F08FFB4FF09C
:103C3000000C04460D4621E733A1D1E90001BFE79E
:103C40005046594600F0A6F822462B4600F054FA9A
:103C500002460B462046294600F09AF8B0E7334B5F
:103C60009E4267DC0022324B00F092F800220646AA
:103C70000F46204629462E4B00F03EFA0022294BE3
:103C800000F088F802460B463046394600F05EFBED
:103C90004FF0020C04460D46F0E600BFAFF3008083
:103CA000182D4454FB21F93F11DA22E33AAD903F3D
:103CB000EB0D76244B7BA93F513DD0A0660DB13F63
:103CC0006E204CC5CD45B73FFF8300922449C23FCB
:103CD0000D5555555555D53F2F6C6A2C44B4A2BF90
:103CE0009AFDDE522DDEAD3F6D9A74AFF2B0B33F58
:103CF000711623FEC671BC3FC4EB98999999C93FD0
:103D00009C7500883CE4377E182D4454FB21F9BF94
:103D1000FFFF0F440000F07FFFFFDB3F684E00080D
:103D2000484E00080000F03FFFFFF23FFF7F0340D6
:103D30000000F83F02460B4600200F4900F006FB4A
:103D40004FF0030C04460D4698E600220B4B00F0A2
:103D50001FF8002206460F4620462946074B00F072
:103D600019F802460B463046394600F0EFFA4FF09C
:103D7000010C04460D4681E60000F0BF0000F03F54
:103D800021F00041704700BF81F0004102E000BF18
:103D900083F0004330B54FEA41044FEA430594EA0B
:103DA000050F08BF90EA020F1FBF54EA000C55EA46
:103DB000020C7FEA645C7FEA655C00F0E2804FEA17
:103DC0005454D4EB5555B8BF6D420CDD2C4480EAF9
:103DD000020281EA030382EA000083EA010180EA29
:103DE000020281EA0303362D88BF30BD11F0004F77
:103DF0004FEA01314FF4801C4CEA113102D04042AD
:103E000061EB410113F0004F4FEA03334CEA1333E7
:103E100002D0524263EB430394EA050F00F0A780FF
:103E2000A4F10104D5F1200E0DDB02FA0EFC22FAFA
:103E300005F2801841F1000103FA0EF2801843FAEE
:103E400005F359410EE0A5F120050EF1200E012ADF
:103E500003FA0EFC28BF4CF0020C43FA05F3C0181D
:103E600051EBE37101F0004507D54FF0000EDCF196
:103E7000000C7EEB00006EEB0101B1F5801F1BD33F
:103E8000B1F5001F0CD349085FEA30004FEA3C0C43
:103E900004F101044FEA445212F5800F80F09A8039
:103EA000BCF1004F08BF5FEA500C50F1000041EB3D
:103EB000045141EA050130BD5FEA4C0C404141EB41
:103EC000010111F4801FA4F10104E9D191F0000F68
:103ED00004BF01460020B1FA81F308BF2033A3F1EB
:103EE0000B03B3F120020CDA0C3208DD02F1140CE2
:103EF000C2F10C0201FA0CF021FA02F10CE002F11D
:103F00001402D8BFC2F1200C01FA02F120FA0CFC15
:103F1000DCBF41EA0C019040E41AA2BF01EB04515E
:103F2000294330BD6FEA04041F3C1CDA0C340EDC5C
:103F300004F11404C4F1200220FA04F001FA02F39F
:103F400040EA030021FA04F345EA030130BDC4F15D
:103F50000C04C4F1200220FA02F001FA04F340EA52
:103F60000300294630BD21FA04F0294630BD94F003
:103F7000000F83F4801306BF81F480110134013DEA
:103F80004EE77FEA645C18BF7FEA655C29D094EA5B
:103F9000050F08BF90EA020F05D054EA000C04BFD9
:103FA0001946104630BD91EA030F1EBF00210020C4
:103FB00030BD5FEA545C05D14000494128BF41F063
:103FC000004130BD14F580043CBF01F5801130BDC7
:103FD00001F0004545F0FE4141F470014FF0000052
:103FE00030BD7FEA645C1ABF194610467FEA655C03
:103FF0001CBF0B46024650EA013406BF52EA0335A5
:1040000091EA030F41F4002130BD00BF90F0000F92
:1040100004BF0021704730B54FF4806404F13204CE
:104020004FF000054FF0000150E700BF90F0000F87
:1040300004BF0021704730B54FF4806404F13204AE
:1040400010F0004548BF40424FF000013EE700BF7E
:1040500042004FEAE2014FEA31014FEA02701FBF0E
:1040600012F07F4393F07F4F81F06051704792F0E0
:10407000000F14BF93F07F4F704730B54FF460745A
:1040800001F0004521F0004120E700BF50EA0102A5
:1040900008BF704730B54FF000050AE050EA010252
:1040A00008BF704730B511F0004502D5404261EBC2
:1040B00041014FF4806404F132045FEA915C3FF403
:1040C000DCAE4FF003025FEADC0C18BF03325FEA9C
:1040D000DC0C18BF033202EBDC02C2F1200300FA51
:1040E00003FC20FA02F001FA03FE40EA0E0021FA76
:1040F00002F11444C1E600BF70B54FF0FF0C4CF460
:10410000E06C1CEA11541DBF1CEA135594EA0C0F15
:1041100095EA0C0F00F0DEF82C4481EA030621EA50
:104120004C5123EA4C5350EA013518BF52EA03358B
:1041300041F4801143F4801338D0A0FB02CE4FF03D
:104140000005E1FB02E506F00042E0FB03E54FF06D
:104150000006E1FB03569CF0000F18BF4EF0010E65
:10416000A4F1FF04B6F5007F64F5407404D25FEA61
:104170004E0E6D4146EB060642EAC62141EA555114
:104180004FEAC52040EA5E504FEACE2EB4F1FD0C56
:1041900088BFBCF5E06F1ED8BEF1004F08BF5FEAD4
:1041A000500E50F1000041EB045170BD06F0004686
:1041B00046EA010140EA020081EA0301B4EB5C0433
:1041C000C2BFD4EB0C0541EA045170BD41F480112B
:1041D0004FF0000E013C00F3AB8014F1360FDEBF50
:1041E000002001F0004170BDC4F10004203C35DA2C
:1041F0000C341BDC04F11404C4F1200500FA05F3AF
:1042000020FA04F001FA05F240EA020001F000424F
:1042100021F0004110EBD37021FA04F642EB0601C5
:104220005EEA430E08BF20EAD37070BDC4F10C04EF
:10423000C4F1200500FA04F320FA05F001FA04F2B3
:1042400040EA020001F0004110EBD37041F100019F
:104250005EEA430E08BF20EAD37070BDC4F12005AA
:1042600000FA05F24EEA020E20FA04F301FA05F212
:1042700043EA020321FA04F001F0004121FA04F2BA
:1042800020EA020000EBD3705EEA430E08BF20EA8A
:10429000D37070BD94F0000F0FD101F000464000C4
:1042A00041EB010111F4801F08BF013CF7D041EA46
:1042B000060195F0000F18BF704703F0004652004A
:1042C00043EB030313F4801F08BF013DF7D043EA1B
:1042D0000603704794EA0C0F0CEA135518BF95EAD1
:1042E0000C0F0CD050EA410618BF52EA4306D1D158
:1042F00081EA030101F000414FF0000070BD50EA77
:10430000410606BF1046194652EA430619D094EA00
:104310000C0F02D150EA013613D195EA0C0F05D1EA
:1043200052EA03361CBF104619460AD181EA03013E
:1043300001F0004141F0FE4141F470014FF00000F6
:1043400070BD41F0FE4141F4780170BD70B54FF091
:10435000FF0C4CF4E06C1CEA11541DBF1CEA135511
:1043600094EA0C0F95EA0C0F00F0A7F8A4EB0504F3
:1043700081EA030E52EA03354FEA013100F08880EA
:104380004FEA03334FF0805545EA131343EA1263B3
:104390004FEA022245EA111545EA10654FEA002668
:1043A0000EF000419D4208BF964244F1FD0404F521
:1043B000407402D25B084FEA3202B61A65EB03057D
:1043C0005B084FEA32024FF480104FF4002CB6EB3A
:1043D000020E75EB030E22BFB61A754640EA0C00BA
:1043E0005B084FEA3202B6EB020E75EB030E22BFFA
:1043F000B61A754640EA5C005B084FEA3202B6EB3B
:10440000020E75EB030E22BFB61A754640EA9C00F9
:104410005B084FEA3202B6EB020E75EB030E22BFC9
:10442000B61A754640EADC0055EA060E18D04FEA87
:10443000051545EA16754FEA06164FEAC30343EA27
:1044400052734FEAC2025FEA1C1CC0D111F4801FF4
:104450000BD141EA00014FF000004FF0004CB6E7ED
:1044600011F4801F04BF01430020B4F1FD0C88BF8C
:10447000BCF5E06F3FF6AFAEB5EB030C04BFB6EB97
:10448000020C5FEA500C50F1000041EB045170BD8A
:104490000EF0004E4EEA113114EB5C04C2BFD4EBB7
:1044A0000C0541EA045170BD41F480114FF0000E3B
:1044B000013C90E645EA060E8DE60CEA135594EAB7
:1044C0000C0F08BF95EA0C0F3FF43BAF94EA0C0FBA
:1044D0000AD150EA01347FF434AF95EA0C0F7FF42F
:1044E00025AF104619462CE795EA0C0F06D152EA83
:1044F00003353FF4FDAE1046194622E750EA410667
:1045000018BF52EA43067FF4C5AE50EA41047FF477
:104510000DAF52EA43057FF4EBAE12E74FF0FF3CDC
:1045200006E000BF4FF0010C02E000BF4FF0010CAD
:104530004DF804CD4FEA410C7FEA6C5C4FEA430C26
:1045400018BF7FEA6C5C1BD001B050EA410C0CBF75
:1045500052EA430C91EA030F02BF90EA020F0020D7
:10456000704710F1000F91EA030F58BF994208BF3E
:1045700090422CBFD8176FEAE37040F001007047FB
:104580004FEA410C7FEA6C5C02D150EA013C07D152
:104590004FEA430C7FEA6C5CD6D152EA033CD3D09D
:1045A0005DF8040B704700BF8446104662468C4697
:1045B0001946634600E000BF01B5FFF7B7FF0028CA
:1045C00048BF10F1000F01BD4DF808EDFFF7F4FFF3
:1045D0000CBF012000205DF808FB00BF4DF808ED7E
:1045E000FFF7EAFF34BF012000205DF808FB00BFA1
:1045F0004DF808EDFFF7E0FF94BF012000205DF8C3
:1046000008FB00BF4DF808EDFFF7CEFF94BF012077
:1046100000205DF808FB00BF4DF808EDFFF7C4FF70
:1046200034BF012000205DF808FB00BF4FEA4102C3
:1046300012F5001215D211D56FF47873B3EB6252F4
:1046400012D94FEAC12343F0004343EA505311F01B
:10465000004F23FA02F018BF404270474FF00000AD
:10466000704750EA013005D111F0004008BF6FF0EB
:10467000004070474FF00000704700BF4FEA410212
:10468000B2F1E04324BFB3F5001CDCF1FE5C0DD9B0
:1046900001F0004C4FEAC0024CEA5070B2F1004FFA
:1046A00040EB830008BF20F00100704711F0804FFD
:1046B00021D113F13872BCBF01F00040704741F4C2
:1046C00080114FEA5252C2F11802C2F1200C10FAC6
:1046D0000CF320FA02F018BF40F001004FEAC123AA
:1046E0004FEAD32303FA0CFC40EA0C0023FA02F34E
:1046F0004FEA4303CCE77FEA625307D150EA013324
:104700001EBF4FF0FE4040F44000704701F00040F3
:1047100040F0FE4040F40000704700BF80F00040D1
:1047200002E000BF81F0004142001FBF5FEA410389
:1047300092EA030F7FEA226C7FEA236C6AD04FEA89
:104740001262D2EB1363C1BFD218414048404140CE
:10475000B8BF5B42192B88BF704710F0004F40F480
:10476000000020F07F4018BF404211F0004F41F49C
:10477000000121F07F4118BF494292EA030F3FD068
:10478000A2F1010241FA03FC10EB0C00C3F120037B
:1047900001FA03F100F0004302D5494260EB40000A
:1047A000B0F5000F13D3B0F1807F06D340084FEA75
:1047B000310102F10102FE2A51D2B1F1004F40EB6A
:1047C000C25008BF20F0010040EA030070474900D2
:1047D00040EB000010F4000FA2F10102EDD1B0FA9D
:1047E00080FCACF1080CB2EB0C0200FA0CF0AABF92
:1047F00000EBC25052421843BCBFD0401843704730
:1048000092F0000F81F4000106BF80F40000013235
:10481000013BB5E74FEA41037FEA226C18BF7FEA0C
:10482000236C21D092EA030F04D092F0000F08BF4E
:104830000846704790EA010F1CBF0020704712F035
:104840007F4F04D1400028BF40F00040704712F174
:1048500000723CBF00F50000704700F0004343F0D9
:10486000FE4040F4000070477FEA226216BF08460F
:104870007FEA23630146420206BF5FEA412390EAD2
:10488000010F40F4800070474FF0000304E000BFC8
:1048900010F0004348BF40425FEA000C08BF704779
:1048A00043F0964301464FF000001CE050EA01023D
:1048B00008BF70474FF000030AE000BF50EA010252
:1048C00008BF704711F0004302D5404261EB41013F
:1048D0005FEA010C02BF84460146002043F0B64364
:1048E00008BFA3F18053A3F50003BCFA8CF2083A89
:1048F000A3EBC25310DB01FA02FC634400FA02FC92
:10490000C2F12002BCF1004F20FA02F243EB020098
:1049100008BF20F00100704702F1200201FA02FCFA
:10492000C2F1200250EA4C0021FA02F243EB0200ED
:1049300008BF20EADC7070474FF0FF0C1CEAD05231
:104940001EBF1CEAD15392EA0C0F93EA0C0F6FD0F2
:104950001A4480EA010C400218BF5FEA41211ED0D0
:104960004FF0006343EA501043EA5111A0FB0131BC
:104970000CF00040B1F5000F3EBF490041EAD37191
:104980005B0040EA010062F17F02FD2A1DD8B3F10D
:10499000004F40EBC25008BF20F00100704790F07C
:1049A000000F0CF0004C08BF49024CEA502040EACE
:1049B00051207F3AC2BFD2F1FF0340EAC250704794
:1049C00040F400004FF00003013A5DDC12F1190FD2
:1049D000DCBF00F000407047C2F10002410021FA44
:1049E00002F1C2F1200200FA02FC5FEA310040F15C
:1049F000000053EA4C0308BF20EADC70704792F0D5
:104A0000000F00F0004C02BF400010F4000F013A0C
:104A1000F9D040EA0C0093F0000F01F0004C02BF07
:104A2000490011F4000F013BF9D041EA0C018FE776
:104A30000CEAD15392EA0C0F18BF93EA0C0F0AD07C
:104A400030F0004C18BF31F0004CD8D180EA0100A2
:104A500000F00040704790F0000F17BF90F0004F3B
:104A6000084691F0000F91F0004F14D092EA0C0F1D
:104A700001D142020FD193EA0C0F03D14B0218BFB0
:104A8000084608D180EA010000F0004040F0FE40F6
:104A900040F40000704740F0FE4040F44000704792
:104AA0004FF0FF0C1CEAD0521EBF1CEAD15392EA11
:104AB0000C0F93EA0C0F69D0A2EB030280EA010C01
:104AC00049024FEA402037D04FF0805343EA11119A
:104AD00043EA10130CF000408B4238BF5B0042F1F8
:104AE0007D024FF4000C8B4224BF5B1A40EA0C009D
:104AF000B3EB510F24BFA3EB510340EA5C00B3EBCF
:104B0000910F24BFA3EB910340EA9C00B3EBD10FBC
:104B100024BFA3EBD10340EADC001B0118BF5FEA0E
:104B20001C1CE0D1FD2A3FF650AF8B4240EBC25037
:104B300008BF20F0010070470CF0004C4CEA5020F8
:104B40007F32C2BFD2F1FF0340EAC250704740F447
:104B500000004FF00003013A37E792F0000F00F039
:104B6000004C02BF400010F4000F013AF9D040EAB7
:104B70000C0093F0000F01F0004C02BF490011F44B
:104B8000000F013BF9D041EA0C0195E70CEAD15343
:104B900092EA0C0F08D142027FF47DAF93EA0C0F2A
:104BA0007FF470AF084676E793EA0C0F04D14B020E
:104BB0003FF44CAF08466EE730F0004C18BF31F0C0
:104BC000004CCAD130F000427FF45CAF31F00043BA
:104BD0007FF43CAF5FE700BF4FF0FF3C06E000BF53
:104BE0004FF0010C02E000BF4FF0010C4DF804CD76
:104BF0004FEA40024FEA41037FEA226C18BF7FEA86
:104C0000236C11D001B052EA530C18BF90EA010F87
:104C100058BFB2EB030088BFC81738BF6FEAE17016
:104C200018BF40F0010070477FEA226C02D15FEAB2
:104C3000402C05D17FEA236CE4D15FEA412CE1D01E
:104C40005DF8040B704700BF844608466146FFE7E5
:104C50000FB5FFF7C9FF002848BF10F1000F0FBDC7
:104C60004DF808EDFFF7F4FF0CBF012000205DF8C0
:104C700008FB00BF4DF808EDFFF7EAFF34BF012045
:104C800000205DF808FB00BF4DF808EDFFF7E0FFDE
:104C900094BF012000205DF808FB00BF4DF808ED2F
:104CA000FFF7D2FF94BF012000205DF808FB00BF92
:104CB0004DF808EDFFF7C8FF34BF012000205DF874
:104CC00008FB00BF4FEA4002B2F1FE4F0FD34FF096
:104CD0009E03B3EB12620DD94FEA002343F0004369
:104CE00010F0004F23FA02F018BF404270474FF017
:104CF0000000704712F1610F01D1420205D110F09E
:104D0000004008BF6FF0004070474FF00000704750
:104D1000F0B4840743D0541E002A3ED0CDB20346DF
:104D200003E0621E002C38D0144603F8015B9A079A
:104D3000F7D1032C2AD9CDB245EA05250F2C45EA37
:104D4000054515D9A4F110073F0903F1100606EB3C
:104D500007161A46156055609560D5601032B2424C
:104D6000F8D104F00F040137032C03EB07130DD91E
:104D70001E462246043A032A46F8045BFAD8221F4C
:104D800022F003020432134404F003042CB1C9B22C
:104D90001C4403F8011BA342FBD1F0BC704714462E
:104DA0000346C6E740EA01039B0770B42AD1032AF1
:104DB00028D90C460346214654F8045BA5F1013678
:104DC00026EA050616F0803F05D1043A032A43F887
:104DD000045B2146EFD89AB10C781C70013A01337C
:104DE0003CB16AB111F8014F03F8014B013A002CB4
:104DF000F7D12AB11A44002103F8011B9342FBD1D9
:104E000070BC70470346E6E725642C25642C2564B6
:104E10000D000000765461736B4C65643100000036
:104E200076494D555461736B0000000076526567FA
:104E30006C6572007650574D5461736B0000000032
:104E400049444C4500000000E2652F227F2B7A3C4C
:104E5000075C143326A6813CBDCBF07A8807703CF2
:104E6000075C143326A6913C4FBB610567ACDD3F60
:104E7000182D4454FB21E93F9BF681D20B73EF3F81
:084E8000182D4454FB21F93FF9
:104E8800E12E6542295C0F3C0AD7233C0000000054
:104E9800010203040102030406070809AAAAAAAA30
:0400000508000000EF
:00000001FF
